{
  "contractName": "Yown",
  "abi": [
    {
      "constant": true,
      "inputs": [],
      "name": "owner",
      "outputs": [
        {
          "name": "",
          "type": "address"
        }
      ],
      "payable": false,
      "stateMutability": "view",
      "type": "function"
    },
    {
      "constant": false,
      "inputs": [
        {
          "name": "newOwner",
          "type": "address"
        }
      ],
      "name": "transferOwnership",
      "outputs": [],
      "payable": false,
      "stateMutability": "nonpayable",
      "type": "function"
    },
    {
      "anonymous": false,
      "inputs": [
        {
          "indexed": false,
          "name": "assetId",
          "type": "uint256"
        }
      ],
      "name": "Creation",
      "type": "event"
    },
    {
      "anonymous": false,
      "inputs": [
        {
          "indexed": true,
          "name": "previousOwner",
          "type": "address"
        },
        {
          "indexed": true,
          "name": "newOwner",
          "type": "address"
        }
      ],
      "name": "OwnershipTransferred",
      "type": "event"
    },
    {
      "constant": false,
      "inputs": [
        {
          "name": "_owner",
          "type": "address"
        },
        {
          "name": "_description",
          "type": "string"
        },
        {
          "name": "_warrantyEndDate",
          "type": "uint256"
        }
      ],
      "name": "createAsset",
      "outputs": [
        {
          "name": "",
          "type": "uint256"
        }
      ],
      "payable": false,
      "stateMutability": "nonpayable",
      "type": "function"
    },
    {
      "constant": true,
      "inputs": [
        {
          "name": "_assetId",
          "type": "uint256"
        }
      ],
      "name": "isUnderWarranty",
      "outputs": [
        {
          "name": "",
          "type": "bool"
        }
      ],
      "payable": false,
      "stateMutability": "view",
      "type": "function"
    },
    {
      "constant": true,
      "inputs": [
        {
          "name": "_assetId",
          "type": "uint256"
        }
      ],
      "name": "viewAsset",
      "outputs": [
        {
          "name": "",
          "type": "string"
        },
        {
          "name": "",
          "type": "uint256"
        },
        {
          "name": "",
          "type": "uint256"
        }
      ],
      "payable": false,
      "stateMutability": "view",
      "type": "function"
    },
    {
      "constant": true,
      "inputs": [],
      "name": "numberOfAssets",
      "outputs": [
        {
          "name": "",
          "type": "uint256"
        }
      ],
      "payable": false,
      "stateMutability": "view",
      "type": "function"
    }
  ],
  "bytecode": "0x606060405266038d7ea4c68000600155336000806101000a81548173ffffffffffffffffffffffffffffffffffffffff021916908373ffffffffffffffffffffffffffffffffffffffff160217905550610ba88061005e6000396000f300606060405260043610610078576000357c0100000000000000000000000000000000000000000000000000000000900463ffffffff1680633a1cb3951461007d5780638da5cb5b14610127578063df8129ed1461017c578063edf49c0914610215578063f2fde38b1461023e578063f3d28f9b14610277575b600080fd5b341561008857600080fd5b61009e60048080359060200190919050506102b2565b6040518080602001848152602001838152602001828103825285818151815260200191508051906020019080838360005b838110156100ea5780820151818401526020810190506100cf565b50505050905090810190601f1680156101175780820380516001836020036101000a031916815260200191505b5094505050505060405180910390f35b341561013257600080fd5b61013a610472565b604051808273ffffffffffffffffffffffffffffffffffffffff1673ffffffffffffffffffffffffffffffffffffffff16815260200191505060405180910390f35b341561018757600080fd5b6101ff600480803573ffffffffffffffffffffffffffffffffffffffff1690602001909190803590602001908201803590602001908080601f01602080910402602001604051908101604052809392919081815260200183838082843782019150505050505091908035906020019091905050610497565b6040518082815260200191505060405180910390f35b341561022057600080fd5b61022861063a565b6040518082815260200191505060405180910390f35b341561024957600080fd5b610275600480803573ffffffffffffffffffffffffffffffffffffffff16906020019091905050610647565b005b341561028257600080fd5b610298600480803590602001909190505061079c565b604051808215151515815260200191505060405180910390f35b6102ba610946565b6000806102c561095a565b6002858154811015156102d457fe5b906000526020600020906005020160a060405190810160405290816000820160009054906101000a900473ffffffffffffffffffffffffffffffffffffffff1673ffffffffffffffffffffffffffffffffffffffff1673ffffffffffffffffffffffffffffffffffffffff1681526020016001820160009054906101000a900473ffffffffffffffffffffffffffffffffffffffff1673ffffffffffffffffffffffffffffffffffffffff1673ffffffffffffffffffffffffffffffffffffffff1681526020016002820154815260200160038201548152602001600482018054600181600116156101000203166002900480601f0160208091040260200160405190810160405280929190818152602001828054600181600116156101000203166002900480156104475780601f1061041c57610100808354040283529160200191610447565b820191906000526020600020905b81548152906001019060200180831161042a57829003601f168201915b5050505050815250509050806080015181604001518260600151829250935093509350509193909250565b6000809054906101000a900473ffffffffffffffffffffffffffffffffffffffff1681565b6000806001600280548060010182816104b091906109bc565b9160005260206000209060050201600060a0604051908101604052808a73ffffffffffffffffffffffffffffffffffffffff1681526020013373ffffffffffffffffffffffffffffffffffffffff16815260200142815260200188815260200189815250909190915060008201518160000160006101000a81548173ffffffffffffffffffffffffffffffffffffffff021916908373ffffffffffffffffffffffffffffffffffffffff16021790555060208201518160010160006101000a81548173ffffffffffffffffffffffffffffffffffffffff021916908373ffffffffffffffffffffffffffffffffffffffff160217905550604082015181600201556060820151816003015560808201518160040190805190602001906105d79291906109ee565b505050039050846003600083815260200190815260200160002060006101000a81548173ffffffffffffffffffffffffffffffffffffffff021916908373ffffffffffffffffffffffffffffffffffffffff160217905550809150509392505050565b6000600280549050905090565b6000809054906101000a900473ffffffffffffffffffffffffffffffffffffffff1673ffffffffffffffffffffffffffffffffffffffff163373ffffffffffffffffffffffffffffffffffffffff161415156106a257600080fd5b600073ffffffffffffffffffffffffffffffffffffffff168173ffffffffffffffffffffffffffffffffffffffff16141515156106de57600080fd5b8073ffffffffffffffffffffffffffffffffffffffff166000809054906101000a900473ffffffffffffffffffffffffffffffffffffffff1673ffffffffffffffffffffffffffffffffffffffff167f8be0079c531659141344cd1fd0a4f28419497f9722a3daafe3b4186f6b6457e060405160405180910390a3806000806101000a81548173ffffffffffffffffffffffffffffffffffffffff021916908373ffffffffffffffffffffffffffffffffffffffff16021790555050565b60006107a661095a565b6002838154811015156107b557fe5b906000526020600020906005020160a060405190810160405290816000820160009054906101000a900473ffffffffffffffffffffffffffffffffffffffff1673ffffffffffffffffffffffffffffffffffffffff1673ffffffffffffffffffffffffffffffffffffffff1681526020016001820160009054906101000a900473ffffffffffffffffffffffffffffffffffffffff1673ffffffffffffffffffffffffffffffffffffffff1673ffffffffffffffffffffffffffffffffffffffff1681526020016002820154815260200160038201548152602001600482018054600181600116156101000203166002900480601f0160208091040260200160405190810160405280929190818152602001828054600181600116156101000203166002900480156109285780601f106108fd57610100808354040283529160200191610928565b820191906000526020600020905b81548152906001019060200180831161090b57829003601f168201915b50505050508152505090508060400151816060015111915050919050565b602060405190810160405280600081525090565b60a060405190810160405280600073ffffffffffffffffffffffffffffffffffffffff168152602001600073ffffffffffffffffffffffffffffffffffffffff16815260200160008152602001600081526020016109b6610a6e565b81525090565b8154818355818115116109e9576005028160050283600052602060002091820191016109e89190610a82565b5b505050565b828054600181600116156101000203166002900490600052602060002090601f016020900481019282601f10610a2f57805160ff1916838001178555610a5d565b82800160010185558215610a5d579182015b82811115610a5c578251825591602001919060010190610a41565b5b509050610a6a9190610b0f565b5090565b602060405190810160405280600081525090565b610b0c91905b80821115610b0857600080820160006101000a81549073ffffffffffffffffffffffffffffffffffffffff02191690556001820160006101000a81549073ffffffffffffffffffffffffffffffffffffffff021916905560028201600090556003820160009055600482016000610aff9190610b34565b50600501610a88565b5090565b90565b610b3191905b80821115610b2d576000816000905550600101610b15565b5090565b90565b50805460018160011615610100020316600290046000825580601f10610b5a5750610b79565b601f016020900490600052602060002090810190610b789190610b0f565b5b505600a165627a7a72305820968f9b7f65ff6db98dc80a4f4d3fd6657c179d2edb76eaa1c4dccaa93bc409bc0029",
  "source": "pragma solidity ^0.4.18;\nimport \"../contracts/erc721.sol\";\nimport \"../contracts/Ownable.sol\";\n\ncontract Yown is Ownable {\n\n    event Creation(uint assetId);\n\n    uint registrationFee = 0.001 ether;\n    /*\n    Definition of asset\n    */\n    struct YownAsset {\n        address owner;\n        address seller;\n        uint creationDate;\n        uint warrantyEndDate;\n        string description; // Product name, color, model number. Human readable\n    }\n    YownAsset[] assets;\n    mapping(uint => address) assetToOwner;\n\n    /*\n    Function to create a new asset. The seller of the assets calls this function\n    Seller pays for the registration on the blockchain\n    */\n    function createAsset(address _owner, string _description, uint _warrantyEndDate) public returns (uint) {\n        //require(msg.value == registrationFee);\n\n        uint assetId = assets.push(YownAsset(\n            _owner, msg.sender, uint(now),\n            _warrantyEndDate, _description\n            )\n        ) - 1; // returns the length of the array, assetId is length - 1\n\n        assetToOwner[assetId] = _owner;\n        return assetId;\n    }\n\n    function isUnderWarranty(uint _assetId) public view returns (bool) {\n        YownAsset memory asset = assets[_assetId]; \n        return asset.warrantyEndDate > asset.creationDate;\n    }\n\n    function viewAsset(uint _assetId) public view returns (string, uint, uint) {\n        YownAsset memory asset = assets[_assetId]; \n\n        return (asset.description, asset.creationDate, asset.warrantyEndDate);\n    }\n\n    function numberOfAssets() public view returns (uint) {\n        return assets.length;\n    }\n\n\n}",
  "sourcePath": "/home/valentin/development/solidity/yown/contracts/Yown.sol",
  "compiler": {
    "name": "solc",
    "version": "0.4.19+commit.c4cbbb05.Emscripten.clang"
  },
  "schemaVersion": "2.0.0",
  "updatedAt": "2018-03-03T14:29:05.730Z"
}