{
  "contractName": "Yown",
  "abi": [
    {
      "constant": true,
      "inputs": [],
      "name": "name",
      "outputs": [
        {
          "name": "",
          "type": "string"
        }
      ],
      "payable": false,
      "stateMutability": "view",
      "type": "function"
    },
    {
      "constant": true,
      "inputs": [],
      "name": "decimals",
      "outputs": [
        {
          "name": "",
          "type": "uint8"
        }
      ],
      "payable": false,
      "stateMutability": "view",
      "type": "function"
    },
    {
      "constant": true,
      "inputs": [],
      "name": "owner",
      "outputs": [
        {
          "name": "",
          "type": "address"
        }
      ],
      "payable": false,
      "stateMutability": "view",
      "type": "function"
    },
    {
      "constant": true,
      "inputs": [],
      "name": "symbol",
      "outputs": [
        {
          "name": "",
          "type": "string"
        }
      ],
      "payable": false,
      "stateMutability": "view",
      "type": "function"
    },
    {
      "constant": false,
      "inputs": [
        {
          "name": "newOwner",
          "type": "address"
        }
      ],
      "name": "transferOwnership",
      "outputs": [],
      "payable": false,
      "stateMutability": "nonpayable",
      "type": "function"
    },
    {
      "anonymous": false,
      "inputs": [
        {
          "indexed": false,
          "name": "assetId",
          "type": "uint256"
        }
      ],
      "name": "Creation",
      "type": "event"
    },
    {
      "anonymous": false,
      "inputs": [
        {
          "indexed": true,
          "name": "_from",
          "type": "address"
        },
        {
          "indexed": true,
          "name": "_to",
          "type": "address"
        },
        {
          "indexed": false,
          "name": "_tokenId",
          "type": "uint256"
        }
      ],
      "name": "Transfer",
      "type": "event"
    },
    {
      "anonymous": false,
      "inputs": [
        {
          "indexed": true,
          "name": "previousOwner",
          "type": "address"
        },
        {
          "indexed": true,
          "name": "newOwner",
          "type": "address"
        }
      ],
      "name": "OwnershipTransferred",
      "type": "event"
    },
    {
      "constant": false,
      "inputs": [
        {
          "name": "_owner",
          "type": "address"
        },
        {
          "name": "_description",
          "type": "string"
        },
        {
          "name": "_warrantyEndDate",
          "type": "uint256"
        }
      ],
      "name": "createAsset",
      "outputs": [
        {
          "name": "",
          "type": "uint256"
        }
      ],
      "payable": false,
      "stateMutability": "nonpayable",
      "type": "function"
    },
    {
      "constant": true,
      "inputs": [
        {
          "name": "_assetId",
          "type": "uint256"
        }
      ],
      "name": "isUnderWarranty",
      "outputs": [
        {
          "name": "",
          "type": "bool"
        }
      ],
      "payable": false,
      "stateMutability": "view",
      "type": "function"
    },
    {
      "constant": true,
      "inputs": [
        {
          "name": "_assetId",
          "type": "uint256"
        }
      ],
      "name": "viewAsset",
      "outputs": [
        {
          "name": "description",
          "type": "string"
        },
        {
          "name": "creationDate",
          "type": "uint256"
        },
        {
          "name": "warrantyEndDate",
          "type": "uint256"
        }
      ],
      "payable": false,
      "stateMutability": "view",
      "type": "function"
    },
    {
      "constant": true,
      "inputs": [],
      "name": "numberOfAssets",
      "outputs": [
        {
          "name": "",
          "type": "uint256"
        }
      ],
      "payable": false,
      "stateMutability": "view",
      "type": "function"
    },
    {
      "constant": false,
      "inputs": [
        {
          "name": "_to",
          "type": "address"
        },
        {
          "name": "_assetId",
          "type": "uint256"
        }
      ],
      "name": "transfer",
      "outputs": [],
      "payable": false,
      "stateMutability": "nonpayable",
      "type": "function"
    },
    {
      "constant": true,
      "inputs": [
        {
          "name": "_owner",
          "type": "address"
        }
      ],
      "name": "balanceOf",
      "outputs": [
        {
          "name": "_balance",
          "type": "uint256"
        }
      ],
      "payable": false,
      "stateMutability": "view",
      "type": "function"
    },
    {
      "constant": true,
      "inputs": [
        {
          "name": "_tokenId",
          "type": "uint256"
        }
      ],
      "name": "ownerOf",
      "outputs": [
        {
          "name": "_owner",
          "type": "address"
        }
      ],
      "payable": false,
      "stateMutability": "view",
      "type": "function"
    },
    {
      "constant": true,
      "inputs": [
        {
          "name": "_owner",
          "type": "address"
        }
      ],
      "name": "getAssetsByOwner",
      "outputs": [
        {
          "name": "",
          "type": "uint256[]"
        }
      ],
      "payable": false,
      "stateMutability": "view",
      "type": "function"
    }
  ],
  "bytecode": "0x606060405266038d7ea4c680006001556040805190810160405280600481526020017f596f776e00000000000000000000000000000000000000000000000000000000815250600290805190602001906200005c9291906200010d565b506040805190810160405280600381526020017f594f57000000000000000000000000000000000000000000000000000000000081525060039080519060200190620000aa9291906200010d565b506012600460006101000a81548160ff021916908360ff160217905550336000806101000a81548173ffffffffffffffffffffffffffffffffffffffff021916908373ffffffffffffffffffffffffffffffffffffffff160217905550620001bc565b828054600181600116156101000203166002900490600052602060002090601f016020900481019282601f106200015057805160ff191683800117855562000181565b8280016001018555821562000181579182015b828111156200018057825182559160200191906001019062000163565b5b50905062000190919062000194565b5090565b620001b991905b80821115620001b55760008160009055506001016200019b565b5090565b90565b6110de80620001cc6000396000f3006060604052600436106100c5576000357c0100000000000000000000000000000000000000000000000000000000900463ffffffff16806306fdde03146100ca578063276f093414610158578063313ce567146101e65780633a1cb395146102155780636352211e146102bf57806370a08231146103225780638da5cb5b1461036f57806395d89b41146103c4578063a9059cbb14610452578063df8129ed14610494578063edf49c091461052d578063f2fde38b14610556578063f3d28f9b1461058f575b600080fd5b34156100d557600080fd5b6100dd6105ca565b6040518080602001828103825283818151815260200191508051906020019080838360005b8381101561011d578082015181840152602081019050610102565b50505050905090810190601f16801561014a5780820380516001836020036101000a031916815260200191505b509250505060405180910390f35b341561016357600080fd5b61018f600480803573ffffffffffffffffffffffffffffffffffffffff16906020019091905050610668565b6040518080602001828103825283818151815260200191508051906020019060200280838360005b838110156101d25780820151818401526020810190506101b7565b505050509050019250505060405180910390f35b34156101f157600080fd5b6101f9610796565b604051808260ff1660ff16815260200191505060405180910390f35b341561022057600080fd5b61023660048080359060200190919050506107a9565b6040518080602001848152602001838152602001828103825285818151815260200191508051906020019080838360005b83811015610282578082015181840152602081019050610267565b50505050905090810190601f1680156102af5780820380516001836020036101000a031916815260200191505b5094505050505060405180910390f35b34156102ca57600080fd5b6102e0600480803590602001909190505061088d565b604051808273ffffffffffffffffffffffffffffffffffffffff1673ffffffffffffffffffffffffffffffffffffffff16815260200191505060405180910390f35b341561032d57600080fd5b610359600480803573ffffffffffffffffffffffffffffffffffffffff169060200190919050506108ca565b6040518082815260200191505060405180910390f35b341561037a57600080fd5b610382610913565b604051808273ffffffffffffffffffffffffffffffffffffffff1673ffffffffffffffffffffffffffffffffffffffff16815260200191505060405180910390f35b34156103cf57600080fd5b6103d7610938565b6040518080602001828103825283818151815260200191508051906020019080838360005b838110156104175780820151818401526020810190506103fc565b50505050905090810190601f1680156104445780820380516001836020036101000a031916815260200191505b509250505060405180910390f35b341561045d57600080fd5b610492600480803573ffffffffffffffffffffffffffffffffffffffff169060200190919080359060200190919050506109d6565b005b341561049f57600080fd5b610517600480803573ffffffffffffffffffffffffffffffffffffffff1690602001909190803590602001908201803590602001908080601f01602080910402602001604051908101604052809392919081815260200183838082843782019150505050505091908035906020019091905050610b1e565b6040518082815260200191505060405180910390f35b341561053857600080fd5b610540610d47565b6040518082815260200191505060405180910390f35b341561056157600080fd5b61058d600480803573ffffffffffffffffffffffffffffffffffffffff16906020019091905050610d54565b005b341561059a57600080fd5b6105b06004808035906020019091905050610ea9565b604051808215151515815260200191505060405180910390f35b60028054600181600116156101000203166002900480601f0160208091040260200160405190810160405280929190818152602001828054600181600116156101000203166002900480156106605780601f1061063557610100808354040283529160200191610660565b820191906000526020600020905b81548152906001019060200180831161064357829003601f168201915b505050505081565b610670610ede565b610678610ede565b600080600760008673ffffffffffffffffffffffffffffffffffffffff1673ffffffffffffffffffffffffffffffffffffffff168152602001908152602001600020546040518059106106c85750595b9080825280602002602001820160405250925060009150600090505b60058054905081101561078b578473ffffffffffffffffffffffffffffffffffffffff166006600083815260200190815260200160002060009054906101000a900473ffffffffffffffffffffffffffffffffffffffff1673ffffffffffffffffffffffffffffffffffffffff16141561077e5780838381518110151561076757fe5b906020019060200201818152505081806001019250505b80806001019150506106e4565b829350505050919050565b600460009054906101000a900460ff1681565b6107b1610ef2565b60008060006005858154811015156107c557fe5b906000526020600020906005020190508060040181600201548260030154828054600181600116156101000203166002900480601f0160208091040260200160405190810160405280929190818152602001828054600181600116156101000203166002900480156108785780601f1061084d57610100808354040283529160200191610878565b820191906000526020600020905b81548152906001019060200180831161085b57829003601f168201915b50505050509250935093509350509193909250565b60006006600083815260200190815260200160002060009054906101000a900473ffffffffffffffffffffffffffffffffffffffff169050919050565b6000600760008373ffffffffffffffffffffffffffffffffffffffff1673ffffffffffffffffffffffffffffffffffffffff168152602001908152602001600020549050919050565b6000809054906101000a900473ffffffffffffffffffffffffffffffffffffffff1681565b60038054600181600116156101000203166002900480601f0160208091040260200160405190810160405280929190818152602001828054600181600116156101000203166002900480156109ce5780601f106109a3576101008083540402835291602001916109ce565b820191906000526020600020905b8154815290600101906020018083116109b157829003601f168201915b505050505081565b60006005828154811015156109e757fe5b906000526020600020906005020190503373ffffffffffffffffffffffffffffffffffffffff168160000160009054906101000a900473ffffffffffffffffffffffffffffffffffffffff1673ffffffffffffffffffffffffffffffffffffffff16141515610a5557600080fd5b82600583815481101515610a6557fe5b906000526020600020906005020160000160006101000a81548173ffffffffffffffffffffffffffffffffffffffff021916908373ffffffffffffffffffffffffffffffffffffffff1602179055508273ffffffffffffffffffffffffffffffffffffffff163373ffffffffffffffffffffffffffffffffffffffff167fddf252ad1be2c89b69c2b068fc378daa952ba7f163c4a11628f55a4df523b3ef846040518082815260200191505060405180910390a3505050565b600080600160058054806001018281610b379190610f06565b9160005260206000209060050201600060a0604051908101604052808a73ffffffffffffffffffffffffffffffffffffffff1681526020013373ffffffffffffffffffffffffffffffffffffffff16815260200142815260200188815260200189815250909190915060008201518160000160006101000a81548173ffffffffffffffffffffffffffffffffffffffff021916908373ffffffffffffffffffffffffffffffffffffffff16021790555060208201518160010160006101000a81548173ffffffffffffffffffffffffffffffffffffffff021916908373ffffffffffffffffffffffffffffffffffffffff16021790555060408201518160020155606082015181600301556080820151816004019080519060200190610c5e929190610f38565b505050039050846006600083815260200190815260200160002060006101000a81548173ffffffffffffffffffffffffffffffffffffffff021916908373ffffffffffffffffffffffffffffffffffffffff160217905550600760008673ffffffffffffffffffffffffffffffffffffffff1673ffffffffffffffffffffffffffffffffffffffff168152602001908152602001600020600081548092919060010191905055507f7ff51c37f7a5d721e388c564567e90ae40bfaa77adce61f755d530a6dfff63c1816040518082815260200191505060405180910390a1809150509392505050565b6000600580549050905090565b6000809054906101000a900473ffffffffffffffffffffffffffffffffffffffff1673ffffffffffffffffffffffffffffffffffffffff163373ffffffffffffffffffffffffffffffffffffffff16141515610daf57600080fd5b600073ffffffffffffffffffffffffffffffffffffffff168173ffffffffffffffffffffffffffffffffffffffff1614151515610deb57600080fd5b8073ffffffffffffffffffffffffffffffffffffffff166000809054906101000a900473ffffffffffffffffffffffffffffffffffffffff1673ffffffffffffffffffffffffffffffffffffffff167f8be0079c531659141344cd1fd0a4f28419497f9722a3daafe3b4186f6b6457e060405160405180910390a3806000806101000a81548173ffffffffffffffffffffffffffffffffffffffff021916908373ffffffffffffffffffffffffffffffffffffffff16021790555050565b600080600583815481101515610ebb57fe5b906000526020600020906005020190508060020154816003015411915050919050565b602060405190810160405280600081525090565b602060405190810160405280600081525090565b815481835581811511610f3357600502816005028360005260206000209182019101610f329190610fb8565b5b505050565b828054600181600116156101000203166002900490600052602060002090601f016020900481019282601f10610f7957805160ff1916838001178555610fa7565b82800160010185558215610fa7579182015b82811115610fa6578251825591602001919060010190610f8b565b5b509050610fb49190611045565b5090565b61104291905b8082111561103e57600080820160006101000a81549073ffffffffffffffffffffffffffffffffffffffff02191690556001820160006101000a81549073ffffffffffffffffffffffffffffffffffffffff021916905560028201600090556003820160009055600482016000611035919061106a565b50600501610fbe565b5090565b90565b61106791905b8082111561106357600081600090555060010161104b565b5090565b90565b50805460018160011615610100020316600290046000825580601f1061109057506110af565b601f0160209004906000526020600020908101906110ae9190611045565b5b505600a165627a7a72305820d4a434034c4bc952eab1637c08d3abdb308158354bea3aa3eb3486422ceea7230029",
  "source": "pragma solidity ^0.4.18;\nimport \"../contracts/erc721.sol\";\nimport \"../contracts/Ownable.sol\";\n\ncontract Yown is Ownable, ERC721 {\n\n    event Creation(uint assetId);\n\n    uint registrationFee = 0.001 ether;\n    string public name = \"Yown\";\n    string public symbol = \"YOW\";\n    uint8 public decimals = 18;\n    /*\n    Definition of asset\n    */\n    struct YownAsset {\n        address owner;\n        address seller;\n        uint creationDate;\n        uint warrantyEndDate;\n        string description; // Product name, color, model number. Human readable\n    }\n    YownAsset[] assets;\n    mapping(uint => address) assetToOwner;\n    mapping(address => uint) ownerAssetCount;\n\n    /*\n    Function to create a new asset. The seller of the assets calls this function\n    Seller pays for the registration on the blockchain\n    */\n    function createAsset(address _owner, string _description, uint _warrantyEndDate) public returns (uint) {\n        //require(msg.value == registrationFee);\n\n        uint assetId = assets.push(YownAsset(\n            _owner, msg.sender, uint(now),\n            _warrantyEndDate, _description\n            )\n        ) - 1; // returns the length of the array, assetId is length - 1\n\n        assetToOwner[assetId] = _owner;\n        ownerAssetCount[_owner]++;\n        Creation(assetId);\n        return assetId;\n    }\n\n    function isUnderWarranty(uint _assetId) public view returns (bool) {\n        YownAsset storage asset = assets[_assetId]; \n        return asset.warrantyEndDate > asset.creationDate;\n    }\n\n    function viewAsset(uint _assetId) public view returns (string description, uint creationDate, uint warrantyEndDate) {\n        YownAsset storage asset = assets[_assetId]; \n\n        return (asset.description, asset.creationDate, asset.warrantyEndDate);\n    }\n\n    function numberOfAssets() public view returns (uint) {\n        return assets.length;\n    }\n\n    function transfer(address _to, uint256 _assetId) public {\n        YownAsset storage asset = assets[_assetId]; \n        require(asset.owner == msg.sender);\n\n        assets[_assetId].owner = _to;\n        Transfer(msg.sender, _to, _assetId);\n    }\n\n    function balanceOf(address _owner) public view returns (uint256 _balance) {\n        return ownerAssetCount[_owner];\n    }\n\n    function ownerOf(uint256 _tokenId) public view returns (address _owner) {\n        return assetToOwner[_tokenId];\n    }\n\n    function getAssetsByOwner(address _owner) external view returns(uint[]) {\n    uint[] memory result = new uint[](ownerAssetCount[_owner]);\n    uint counter = 0;\n    for (uint i = 0; i < assets.length; i++) {\n      if (assetToOwner[i] == _owner) {\n        result[counter] = i;\n        counter++;\n      }\n    }\n    return result;\n  }\n\n}",
  "sourcePath": "/home/valentin/development/solidity/yown/contracts/Yown.sol",
  "compiler": {
    "name": "solc",
    "version": "0.4.19+commit.c4cbbb05.Emscripten.clang"
  },
  "schemaVersion": "2.0.0",
  "updatedAt": "2018-03-04T14:31:45.971Z"
}