{
  "contractName": "Yown",
  "abi": [
    {
      "constant": true,
      "inputs": [],
      "name": "owner",
      "outputs": [
        {
          "name": "",
          "type": "address"
        }
      ],
      "payable": false,
      "stateMutability": "view",
      "type": "function"
    },
    {
      "constant": false,
      "inputs": [
        {
          "name": "newOwner",
          "type": "address"
        }
      ],
      "name": "transferOwnership",
      "outputs": [],
      "payable": false,
      "stateMutability": "nonpayable",
      "type": "function"
    },
    {
      "anonymous": false,
      "inputs": [
        {
          "indexed": false,
          "name": "assetId",
          "type": "uint256"
        }
      ],
      "name": "Creation",
      "type": "event"
    },
    {
      "anonymous": false,
      "inputs": [
        {
          "indexed": true,
          "name": "_from",
          "type": "address"
        },
        {
          "indexed": true,
          "name": "_to",
          "type": "address"
        },
        {
          "indexed": false,
          "name": "_tokenId",
          "type": "uint256"
        }
      ],
      "name": "Transfer",
      "type": "event"
    },
    {
      "anonymous": false,
      "inputs": [
        {
          "indexed": true,
          "name": "previousOwner",
          "type": "address"
        },
        {
          "indexed": true,
          "name": "newOwner",
          "type": "address"
        }
      ],
      "name": "OwnershipTransferred",
      "type": "event"
    },
    {
      "constant": false,
      "inputs": [
        {
          "name": "_owner",
          "type": "address"
        },
        {
          "name": "_description",
          "type": "string"
        },
        {
          "name": "_warrantyEndDate",
          "type": "uint256"
        }
      ],
      "name": "createAsset",
      "outputs": [
        {
          "name": "",
          "type": "uint256"
        }
      ],
      "payable": false,
      "stateMutability": "nonpayable",
      "type": "function"
    },
    {
      "constant": true,
      "inputs": [
        {
          "name": "_assetId",
          "type": "uint256"
        }
      ],
      "name": "isUnderWarranty",
      "outputs": [
        {
          "name": "",
          "type": "bool"
        }
      ],
      "payable": false,
      "stateMutability": "view",
      "type": "function"
    },
    {
      "constant": true,
      "inputs": [
        {
          "name": "_assetId",
          "type": "uint256"
        }
      ],
      "name": "viewAsset",
      "outputs": [
        {
          "name": "description",
          "type": "string"
        },
        {
          "name": "creationDate",
          "type": "uint256"
        },
        {
          "name": "warrantyEndDate",
          "type": "uint256"
        }
      ],
      "payable": false,
      "stateMutability": "view",
      "type": "function"
    },
    {
      "constant": true,
      "inputs": [],
      "name": "numberOfAssets",
      "outputs": [
        {
          "name": "",
          "type": "uint256"
        }
      ],
      "payable": false,
      "stateMutability": "view",
      "type": "function"
    },
    {
      "constant": false,
      "inputs": [
        {
          "name": "_to",
          "type": "address"
        },
        {
          "name": "_assetId",
          "type": "uint256"
        }
      ],
      "name": "transfer",
      "outputs": [],
      "payable": false,
      "stateMutability": "nonpayable",
      "type": "function"
    },
    {
      "constant": true,
      "inputs": [
        {
          "name": "_owner",
          "type": "address"
        }
      ],
      "name": "balanceOf",
      "outputs": [
        {
          "name": "_balance",
          "type": "uint256"
        }
      ],
      "payable": false,
      "stateMutability": "view",
      "type": "function"
    },
    {
      "constant": true,
      "inputs": [
        {
          "name": "_tokenId",
          "type": "uint256"
        }
      ],
      "name": "ownerOf",
      "outputs": [
        {
          "name": "_owner",
          "type": "address"
        }
      ],
      "payable": false,
      "stateMutability": "view",
      "type": "function"
    }
  ],
  "bytecode": "0x606060405266038d7ea4c68000600155336000806101000a81548173ffffffffffffffffffffffffffffffffffffffff021916908373ffffffffffffffffffffffffffffffffffffffff160217905550610b678061005e6000396000f300606060405260043610610099576000357c0100000000000000000000000000000000000000000000000000000000900463ffffffff1680633a1cb3951461009e5780636352211e1461014857806370a08231146101ab5780638da5cb5b146101f8578063a9059cbb1461024d578063df8129ed1461028f578063edf49c0914610328578063f2fde38b14610351578063f3d28f9b1461038a575b600080fd5b34156100a957600080fd5b6100bf60048080359060200190919050506103c5565b6040518080602001848152602001838152602001828103825285818151815260200191508051906020019080838360005b8381101561010b5780820151818401526020810190506100f0565b50505050905090810190601f1680156101385780820380516001836020036101000a031916815260200191505b5094505050505060405180910390f35b341561015357600080fd5b61016960048080359060200190919050506104a9565b604051808273ffffffffffffffffffffffffffffffffffffffff1673ffffffffffffffffffffffffffffffffffffffff16815260200191505060405180910390f35b34156101b657600080fd5b6101e2600480803573ffffffffffffffffffffffffffffffffffffffff169060200190919050506104e6565b6040518082815260200191505060405180910390f35b341561020357600080fd5b61020b6104f0565b604051808273ffffffffffffffffffffffffffffffffffffffff1673ffffffffffffffffffffffffffffffffffffffff16815260200191505060405180910390f35b341561025857600080fd5b61028d600480803573ffffffffffffffffffffffffffffffffffffffff16906020019091908035906020019091905050610515565b005b341561029a57600080fd5b610312600480803573ffffffffffffffffffffffffffffffffffffffff1690602001909190803590602001908201803590602001908080601f01602080910402602001604051908101604052809392919081815260200183838082843782019150505050505091908035906020019091905050610641565b6040518082815260200191505060405180910390f35b341561033357600080fd5b61033b6107e4565b6040518082815260200191505060405180910390f35b341561035c57600080fd5b610388600480803573ffffffffffffffffffffffffffffffffffffffff169060200190919050506107f1565b005b341561039557600080fd5b6103ab6004808035906020019091905050610946565b604051808215151515815260200191505060405180910390f35b6103cd61097b565b60008060006002858154811015156103e157fe5b906000526020600020906005020190508060040181600201548260030154828054600181600116156101000203166002900480601f0160208091040260200160405190810160405280929190818152602001828054600181600116156101000203166002900480156104945780601f1061046957610100808354040283529160200191610494565b820191906000526020600020905b81548152906001019060200180831161047757829003601f168201915b50505050509250935093509350509193909250565b60006003600083815260200190815260200160002060009054906101000a900473ffffffffffffffffffffffffffffffffffffffff169050919050565b6000809050919050565b6000809054906101000a900473ffffffffffffffffffffffffffffffffffffffff1681565b600060028281548110151561052657fe5b906000526020600020906005020190503373ffffffffffffffffffffffffffffffffffffffff168160000160009054906101000a900473ffffffffffffffffffffffffffffffffffffffff1673ffffffffffffffffffffffffffffffffffffffff1614151561059457600080fd5b828160000160006101000a81548173ffffffffffffffffffffffffffffffffffffffff021916908373ffffffffffffffffffffffffffffffffffffffff1602179055508273ffffffffffffffffffffffffffffffffffffffff163373ffffffffffffffffffffffffffffffffffffffff167fddf252ad1be2c89b69c2b068fc378daa952ba7f163c4a11628f55a4df523b3ef846040518082815260200191505060405180910390a3505050565b60008060016002805480600101828161065a919061098f565b9160005260206000209060050201600060a0604051908101604052808a73ffffffffffffffffffffffffffffffffffffffff1681526020013373ffffffffffffffffffffffffffffffffffffffff16815260200142815260200188815260200189815250909190915060008201518160000160006101000a81548173ffffffffffffffffffffffffffffffffffffffff021916908373ffffffffffffffffffffffffffffffffffffffff16021790555060208201518160010160006101000a81548173ffffffffffffffffffffffffffffffffffffffff021916908373ffffffffffffffffffffffffffffffffffffffff160217905550604082015181600201556060820151816003015560808201518160040190805190602001906107819291906109c1565b505050039050846003600083815260200190815260200160002060006101000a81548173ffffffffffffffffffffffffffffffffffffffff021916908373ffffffffffffffffffffffffffffffffffffffff160217905550809150509392505050565b6000600280549050905090565b6000809054906101000a900473ffffffffffffffffffffffffffffffffffffffff1673ffffffffffffffffffffffffffffffffffffffff163373ffffffffffffffffffffffffffffffffffffffff1614151561084c57600080fd5b600073ffffffffffffffffffffffffffffffffffffffff168173ffffffffffffffffffffffffffffffffffffffff161415151561088857600080fd5b8073ffffffffffffffffffffffffffffffffffffffff166000809054906101000a900473ffffffffffffffffffffffffffffffffffffffff1673ffffffffffffffffffffffffffffffffffffffff167f8be0079c531659141344cd1fd0a4f28419497f9722a3daafe3b4186f6b6457e060405160405180910390a3806000806101000a81548173ffffffffffffffffffffffffffffffffffffffff021916908373ffffffffffffffffffffffffffffffffffffffff16021790555050565b60008060028381548110151561095857fe5b906000526020600020906005020190508060020154816003015411915050919050565b602060405190810160405280600081525090565b8154818355818115116109bc576005028160050283600052602060002091820191016109bb9190610a41565b5b505050565b828054600181600116156101000203166002900490600052602060002090601f016020900481019282601f10610a0257805160ff1916838001178555610a30565b82800160010185558215610a30579182015b82811115610a2f578251825591602001919060010190610a14565b5b509050610a3d9190610ace565b5090565b610acb91905b80821115610ac757600080820160006101000a81549073ffffffffffffffffffffffffffffffffffffffff02191690556001820160006101000a81549073ffffffffffffffffffffffffffffffffffffffff021916905560028201600090556003820160009055600482016000610abe9190610af3565b50600501610a47565b5090565b90565b610af091905b80821115610aec576000816000905550600101610ad4565b5090565b90565b50805460018160011615610100020316600290046000825580601f10610b195750610b38565b601f016020900490600052602060002090810190610b379190610ace565b5b505600a165627a7a723058206f556782d7bb40e8cd74d67f377cd4e773ac3f429c4105f855fe5574b308075d0029",
  "source": "pragma solidity ^0.4.18;\nimport \"../contracts/erc721.sol\";\nimport \"../contracts/Ownable.sol\";\n\ncontract Yown is Ownable, ERC721 {\n\n    event Creation(uint assetId);\n\n    uint registrationFee = 0.001 ether;\n    /*\n    Definition of asset\n    */\n    struct YownAsset {\n        address owner;\n        address seller;\n        uint creationDate;\n        uint warrantyEndDate;\n        string description; // Product name, color, model number. Human readable\n    }\n    YownAsset[] assets;\n    mapping(uint => address) assetToOwner;\n\n    /*\n    Function to create a new asset. The seller of the assets calls this function\n    Seller pays for the registration on the blockchain\n    */\n    function createAsset(address _owner, string _description, uint _warrantyEndDate) public returns (uint) {\n        //require(msg.value == registrationFee);\n\n        uint assetId = assets.push(YownAsset(\n            _owner, msg.sender, uint(now),\n            _warrantyEndDate, _description\n            )\n        ) - 1; // returns the length of the array, assetId is length - 1\n\n        assetToOwner[assetId] = _owner;\n        return assetId;\n    }\n\n    function isUnderWarranty(uint _assetId) public view returns (bool) {\n        YownAsset storage asset = assets[_assetId]; \n        return asset.warrantyEndDate > asset.creationDate;\n    }\n\n    function viewAsset(uint _assetId) public view returns (string description, uint creationDate, uint warrantyEndDate) {\n        YownAsset storage asset = assets[_assetId]; \n\n        return (asset.description, asset.creationDate, asset.warrantyEndDate);\n    }\n\n    function numberOfAssets() public view returns (uint) {\n        return assets.length;\n    }\n\n    function transfer(address _to, uint256 _assetId) public {\n        YownAsset storage asset = assets[_assetId]; \n        require(asset.owner == msg.sender);\n\n        asset.owner = _to;\n        Transfer(msg.sender, _to, _assetId);\n    }\n\n    function balanceOf(address _owner) public view returns (uint256 _balance) {\n        return 0;\n    }\n\n    function ownerOf(uint256 _tokenId) public view returns (address _owner) {\n        return assetToOwner[_tokenId];\n    }\n\n}",
  "sourcePath": "/home/valentin/development/solidity/yown/contracts/Yown.sol",
  "compiler": {
    "name": "solc",
    "version": "0.4.19+commit.c4cbbb05.Emscripten.clang"
  },
  "schemaVersion": "2.0.0",
  "updatedAt": "2018-03-03T14:47:27.111Z"
}